:10000000DDC001C100C1FFC0FEC0ADC7FCC0FBC068
:10001000FAC0F9C0F8C0F7C0F6C0F5C0ABC6F3C06F
:10002000F2C0F1C0F0C0A5C3A8C4AAC4A9C4A8C4A2
:10003000A7C4A6C4A5C4A4C4BBC3A2C4A1C4A0C46D
:100040009FC49EC49DC49CC4B3C39AC499C498C49D
:1000500097C496C495C494C4B3C392C491C490C4C5
:100060008FC48EC48DC48CC4D0C38AC489C488C4D0
:1000700087C486C485C484C4A3C382C481C480C425
:100080007FC47EC47DC47CC4C5C37AC479C478C42B
:1000900077C476C475C474C4C2C372C471C470C456
:1000A0006FC46EC46DC46CC4CBC36AC469C468C475
:1000B00067C466C465C464C4ECC362C461C460C47C
:1000C0005FC45EC45DC45CC4AFC35AC459C458C4E1
:1000D00057C456C455C454C4C1C352C451C450C4F7
:1000E0004FC44EC44DC44CC4D6C34AC449C448C40A
:1000F00047C446C445C444C4CEC342C441C440C43A
:100100003FC43EC43DC43CC4C6C33AC439C438C469
:1001100037C436C435C434C4BEC332C431C430C499
:100120002FC42EC42DC42CC4BFC32AC429C428C4C0
:1001300027C426C425C424C4E7C322C421C420C4C0
:100140001FC41EC41DC41CC4AFC31AC419C418C420
:1001500017C416C415C414C4D7C312C411C410C420
:100160000FC40EC40DC40CC4B7C30AC409C408C468
:1001700007C406C405C404C4CBC302C401C400C47C
:10018000FFC3FEC3FDC3FCC3C3C3FAC3F9C3F8C3B3
:10019000F7C3F6C3F5C3F4C3D0C3F2C3F1C3F0C3CE
:1001A000EFC3EEC3EDC3ECC3E2C3EAC3E9C3E8C3E4
:1001B000E7C3E6C3E5C3E4C3DAC32A0911241FBEBB
:1001C000CFEFD2E0DEBFCDBF11E0A0E0B1E0E6E2CC
:1001D000F3E102C005900D92A033B107D9F722E0F8
:1001E000A0E3B1E001C01D92A036B207E1F710E034
:1001F000CEEDD0E003C02197FE018DD8CD3DD107D3
:10020000D1F7C7D68EC8FCCE8091D00190E0209166
:10021000D101821B910908959091D1018091D00163
:10022000981750F4E92FF0E0EE52FE4F208130E0B5
:100230009F5F9093D10102C02FEF3FEFC901089556
:10024000E091D1018091D001E81730F4F0E0EE5256
:10025000FE4F808190E008958FEF9FEF0895CF9338
:10026000DF93EC01E091A901F091AA01309701F12F
:100270009091D1018091D0019817D0F016161706F1
:100280008CF420E030E090E0DE01A90FB11D4C912C
:10029000D901AE52BE4F4C939F5F292F30E02617F5
:1002A000370794F3CB011092D1016093D0010995E7
:1002B000DF91CF910895E091AB01F091AC013097BF
:1002C00029F01092AF011092AE0109950895EF92B6
:1002D000FF920F931F93CF93DF93ECE0F1E0118235
:1002E00012820F2EF7E8EF2EF1E0FF2EF02D87019E
:1002F000C0E08091D00190E02091D101821B910952
:10030000181619066CF4C03228F487EA91E084DFED
:10031000D8018C93CF5F0F5F1F4FC03251F703C0DE
:10032000C03209F06CC180918701893909F067C139
:100330008091A601863609F062C1809188018830DB
:1003400009F04EC0809189018C3409F022C1EAE89D
:10035000F1E040E951E080E090E02191820F911DB1
:100360004E175F07D1F7209190018F709927422F88
:1003700050E08417950709F00CC110927F01A7E89F
:10038000B1E013968C911397E0E8F1E08183149625
:100390008C911497808315968C911597828316966D
:1003A0008C911697848317968C9117978383189650
:1003B0008C918583ECE0F1E08CE481832283809151
:1003C0007D018F3F19F410927D0105C080917D0160
:1003D0008F5F80937D0180917D0180931201D9C050
:1003E000873009F05AC080918901823409F007C131
:1003F000EAE8F1E04FE851E080E090E02191820FDF
:10040000911D4E175F07D1F730918F018F7099279B
:10041000432F50E08417950709F0F1C020918E0119
:10042000283C21F481E080937F0121C0293C19F40C
:1004300010927F011CC010927F01E7E8F1E08381F8
:1004400090E0982F88274481840F911D90930B0191
:1004500080930A01858190E0982F88274681840F38
:10046000911D909309018093080120930701ECE00E
:10047000F1E082E48183328380917D018F3F19F422
:1004800010927D0105C080917D018F5F80937D0179
:1004900080917D0180931201B2C0823109F079C050
:1004A000809189018D3409F0AAC0EAE8F1E04AE9B7
:1004B00051E080E090E02191820F911DE417F50753
:1004C000D1F78F70992720919A0130E08217930716
:1004D00009F095C080915C01811104C081E0809396
:1004E0005C0103C081E080935A01439810925B0144
:1004F000EFE5F1E0AFE6B1E020E0E7018B81482FC6
:1005000050E0042E452F000C441F550B000C441FD7
:10051000551F40838F7384838C81482F50E0042EB5
:10052000452F000C441F550B000C441F551F4087DE
:100530008F7384878D8190E0982F88273E81830F69
:10054000911D8D939D932F5FD4E0ED0EF11C31969C
:10055000243099F6ACE0B1E0E7E8F1E08281119651
:100560008C931197E181F0E0E957FE4F818112965B
:100570008C9380917D018F3F19F410927D0105C00D
:1005800080917D018F5F80937D0180917D018093BB
:10059000120180918801833091F580918901843521
:1005A00071F5E7E8F1E0948183818F70981327C09B
:1005B000ECE0F1E084E58183928380915601909193
:1005C00057019695879596958795838380914401E9
:1005D000909145019695879596958795848380910E
:1005E0007D018F3F19F410927D0105C080917D013E
:1005F0008F5F80937D0180917D018093120180E265
:10060000E7E8F1E0DF011D928A95E9F7DF91CF91EC
:100610001F910F91FF90EF90089510925F0281E07B
:1006200080935D0210925C0280E28093B80085E4C2
:100630008093BC00F8947894089540911402262F7A
:1006400030E0240F311D21323105ECF420915F029E
:100650002430D9F4662381F0A82FB92F80E090E0F0
:10066000309114022D91FC01EA5EFD4FE30FF11D64
:10067000208301968617A0F380911402680F60937F
:10068000140280E0089581E0089582E00895CF93F8
:10069000DF931F92CDB7DEB769838091AD018823C8
:1006A00099F08091AE018032B0F48091AF01E82FD3
:1006B000F0E0E055FE4F60838F5F8093AF01809341
:1006C000AE0181E090E009C061E0CE010196B5DFA6
:1006D00081E090E002C080E090E00F90DF91CF9148
:1006E0000895CF92DF92EF92FF920F931F93CF93D3
:1006F000DF938C01CB016A012091AD012223A1F08F
:100700004115510599F0EB017B01E40EF51E69914D
:10071000D801ED91FC910190F081E02DC80109957F
:10072000CE15DF05A1F702C0642F87DFC601DF9178
:10073000CF911F910F91FF90EF90DF90CF90089590
:1007400048E050E06CE071E087EA91E0CADF08958C
:1007500085ED8093BC00ECEBF0E0808184FDFDCF63
:1007600010925F02089585EC8093BC0010925F02A6
:1007700008951F920F920FB60F9211242F933F935B
:100780004F935F936F937F938F939F93AF93BF9399
:10079000EF93FF938091B900E82FE87F8E2F90E0D0
:1007A000893C910508F0ECC0FC01EC5EFF4F099418
:1007B00080915E028093BB0085EC8093BC00E0C01A
:1007C0009091370280913602981780F4E0913702B9
:1007D00081E08E0F80933702F0E0E85CFD4F80816E
:1007E0008093BB0085EC8093BC00CAC080915D0201
:1007F000882311F0ADDFC4C081E080935C0284EAFD
:100800008093BC0010925F02BBC080E28093F20133
:100810009FDFB6C080E38093F2019ADFB1C088E326
:100820008093F201A0DFACC0E091370281E08E0F2F
:10083000809337028091BB00F0E0E85CFD4F80833D
:100840009091370280913602981720F485EC8093BE
:10085000BC0096C085E88093BC0092C0E09137024E
:1008600081E08E0F809337028091BB00F0E0E85C5E
:10087000FD4F808380915D02882311F069DF80C085
:1008800081E080935C0284EA8093BC0010925F0256
:1008900077C05EDF75C083E080935F021092F30142
:1008A00085EC8093BC006CC08091F301803280F4B1
:1008B000E091F30181E08E0F8093F3018091BB0002
:1008C000F0E0EC50FE4F808385EC8093BC0058C074
:1008D00085E88093BC0054C046DF8091F3018032EC
:1008E00030F4E091F301F0E0EC50FE4F10826091A3
:1008F000F30170E0E0915802F091590284EF91E029
:1009000009951092F3013CC085E88093BC0038C083
:1009100084E080935F021092150210921402E0911D
:100920005A02F0915B02099580911402811105C071
:1009300081E08093140210921602E091150281E08A
:100940008E0F80931502F0E0EA5EFD4F8081809368
:10095000BB009091150280911402981720F485EC49
:100960008093BC000DC085E88093BC0009C085EC75
:100970008093BC0010925F0203C01092F201E8DE87
:10098000FF91EF91BF91AF919F918F917F916F9167
:100990005F914F913F912F910F900FBE0F901F903D
:1009A00018951092D1011092D0011092AF011092BF
:1009B000AE0133DE0895660F6093BA002BE531E097
:1009C00030935B0220935A022FE231E030935902B8
:1009D00020935802E6DF0895DF92EF92FF920F9383
:1009E0001F93CF93DF9384B1822B84B985B1322FCB
:1009F0003095382385B1282BDFB6F8944115510581
:100A000009F42EC0FB01EB01C40FD51F10E00F2E1F
:100A1000F4E6EF2EF12CF02D819190E0B80121D475
:100A2000B70130D488E025B967FF35B9660F0000FB
:100A300000C035B9000000C000C000C000C000C048
:100A400000C000C000C000C000C000C000C000C0A6
:100A500000C000C08A9539F7EC17FD0709F0DCCF1C
:100A6000DFBEDF91CF911F910F91FF90EF90DF904C
:100A700008950F93FA01EE0FFF1F4E0F5F1FACDFBB
:100A800085E88A95F1F700000F9108950F93022FE2
:100A900022E0EFDF0F910895242B20937C00606CFF
:100AA00060937A00EAE7F0E0808186FDFDCF8091D7
:100AB00078002091790090E0922B0895882351F0DE
:100AC00090E0EFECF7E03197F1F700C000009F5F96
:100AD0008913F7CF08952F923F924F925F926F92B2
:100AE0007F928F929F92AF92BF92CF92DF92EF92BE
:100AF000FF920F931F93CF93DF9301151105C1F15F
:100B00004801422E542EE12CF12CC62ED12CA82EB9
:100B1000B12C86010B5D1E4F222E342E80915A017E
:100B2000811140C0C6018E5D9E4F3C01E501C75D4D
:100B3000DE4F08C080915A019FEF691A790A219609
:100B4000811130C05520D9F085B1807C9881892BE6
:100B500085B941101FC0832D01C0822DAFDF601603
:100B6000710641F7EFEFEE1AFE0A8E149F04B1F6FC
:100B700085B1837C85B98BB18F708BB913C044204C
:100B800061F38BB1982F9670F3018081892B8BB91B
:100B9000822DE4CF8BB18670F3019081892B8BB9C4
:100BA000832DDCCFDF91CF911F910F91FF90EF90BC
:100BB000DF90CF90BF90AF909F908F907F906F907D
:100BC0005F904F903F902F900895CF93DF93C09107
:100BD0005801D0E021E040E465E086E891E05CDF88
:100BE000CC0FDD1FCA5BDE4F99838883C09158010B
:100BF000D0E020E040E465E086E891E04DDFCC0FF6
:100C0000DD1FCC5CDE4F99838883809158018F5F14
:100C1000883018F48093580102C010925801E6E41D
:100C2000F1E0A4E3B1E066E571E080E090E020E06F
:100C300030E041915191240F351F4D915D91840F0A
:100C4000951FE617F707A9F7369527953695279547
:100C500036952795309357012093560196958795A1
:100C60009695879596958795909345018093440135
:100C7000DF91CF9108958091560190915701873768
:100C800022E0920720F084E08093010108958E34E1
:100C900022E0920720F083E08093010108958F32D3
:100CA00022E0920720F082E08093010108958331D1
:100CB000924020F081E0809301010895109201019B
:100CC0000895109232018091560190915701803A17
:100CD00022E0920738F081E08093320184E0809333
:100CE00000010895873722E0920720F083E0809387
:100CF000000108958E3422E0920720F082E0809374
:100D0000000108958F32924020F081E0809300012D
:100D1000089510920001089535B1BC0162707727E3
:100D20000024769567950794769567950794762FB6
:100D3000602DAC01417055270024569547950794C6
:100D4000569547950794542F402D262F242B3F73FB
:100D5000232B25B92BB1AC014870552755954795E4
:100D60008470992795958795842B922F997F892B4D
:100D70008BB908951F920F920FB60F921124CF9244
:100D8000DF92EF92FF922F933F934F935F936F9376
:100D90007F938F939F93AF93BF93CF93DF93EF9303
:100DA000FF9320910A0130910B01809108019091ED
:100DB0000901820F931F892B09F440C060917901CA
:100DC00070917A0180917B0190917C0120910A01C0
:100DD00030910B014091080150910901240F351FFA
:100DE00040E050E062D2672B682B692B19F482E057
:100DF000809378016091790170917A0180917B01F3
:100E000090917C0120910A0130910B0140910801E1
:100E100050910901C0910A01D0910B01240F351F97
:100E200040E050E042D26E01E12CF12C6C157D05C2
:100E30008E059F0519F481E08093780180917901F6
:100E400090917A01A0917B01B0917C018F709927DC
:100E5000AA27BB27892B8A2B8B2B19F481E080933F
:100E600077016091790170917A0180917B01909175
:100E70007C0120E233E040E050E017D26C3B72404E
:100E80008105910521F481E080935D0114C060919A
:100E9000790170917A0180917B0190917C0120E22F
:100EA00033E040E050E001D26C3C72408105910596
:100EB00011F410925D016091790170917A01809135
:100EC0007B0190917C0120E436E040E050E0EDD1E0
:100ED000672B682B692BE9F48091440190914501BF
:100EE00081159240A0F020915601309157018091D8
:100EF00030019091310101968217930718F081E03B
:100F000080933301309331012093300102C010925D
:100F100033018091790190917A01A0917B01B09188
:100F20007C010196A11DB11D8093790190937A01F6
:100F3000A0937B01B0937C01FF91EF91DF91CF9162
:100F4000BF91AF919F918F917F916F915F914F91E1
:100F50003F912F91FF90EF90DF90CF900F900FBEB9
:100F60000F901F9018951F920F920FB60F92112499
:100F70008F93EF93FF93ECEBF0E080E9808385ECB7
:100F80008083FF91EF918F910F900FBE0F901F9074
:100F900018958FE39CE90197F1F700C000001DB898
:100FA0008EEF84B985B1817085B986EF8AB98BB12E
:100FB00089708BB988E087B9439AC8E006DE5BDEAA
:100FC000E0910101F0E0EE5FFE4F808190E0A4DE51
:100FD000EFE1FEE43197F1F700C00000C15071F776
:100FE00068E087EA91E0E7DC87E691E09093AA0168
:100FF0008093A90180EA93E09093AC018093AB01C8
:10100000E0E8F1E099E191838FEF8083128294838D
:10101000838315822091070142E050E0BF018EE7F3
:1010200091E034DD85E085BD81E080936E008AE04B
:101030008093690084E08093680088E080936D006D
:101040000F2EF6E4EF2EF1E0FF2EF02DC4E3D1E0F9
:101050000F2EF8E7BF2EF02DDD24D3940F2EFAE0EB
:10106000AF2EF02D6894CC24C2F880915D018130C0
:10107000C1F480915E01811122C0F70180899189BC
:101080008E34924058F0888999898115924030F4C5
:1010900085B18C6385B98BB1806F8BB9D0925E01BD
:1010A0000EC081110CC080915E01813041F485B188
:1010B000837C85B98BB18F708BB910925E01809162
:1010C00078018230A9F5888999898115924090F03C
:1010D00080913301882319F0B09207010BC08091F1
:1010E0000701880F8093070180910701843610F073
:1010F000A09207012091070142E050E060E871E012
:101100008EE791E0C3DC80917F01882371F0E0E8F5
:10111000F1E08181948191838483808193819083A4
:1011200083838281958192838583109278010EC09A
:1011300080917801813051F420E042E050E060E895
:1011400071E08EE791E0A2DC109278018091770146
:101150008823D9F13ADD888999898115924050F424
:101160008ADDE0910101F0E0EE5FFE4F808190E0CA
:10117000D3DD29C0A6DDE0915901F0E0EE5FFE4F1E
:10118000808190E0C9DD80913201882351F0809107
:101190005901811103C0C092590115C01092590123
:1011A00012C080913301882319F0C09259010BC0FD
:1011B000809159018F5F80935901853020F0809193
:1011C0000001809359011092770180915C0188237E
:1011D00009F44BCFE0915B0120915B0180915B01B1
:1011E000A0915B0140915B01F0E0EE0FFF1FE15920
:1011F000FE4F0081118130E0215A3E4F90E0815A2C
:101200009E4FB0E0A15ABE4FE42FF0E0AF01415A2B
:101210005E4F4A01F9012485FC01448118966C91C6
:10122000F401808158DC80915A01882319F01092D2
:101230005A0105C080915B018F5F80935B018091B3
:101240005B01843008F411CF10925B01439A109235
:101250005C0108CF88E191E09093A8018093A701F9
:1012600008950024552704C0080E591F880F991FA0
:10127000009729F076956795B8F37105B9F7802D39
:10128000952F089597FB072E16F4009406D077FD4E
:1012900008D02DD007FC05D03EF4909581959F4F46
:1012A0000895709561957F4F0895A1E21A2EAA1BAB
:1012B000BB1BFD010DC0AA1FBB1FEE1FFF1FA21706
:1012C000B307E407F50720F0A21BB30BE40BF50B03
:1012D000661F771F881F991F1A9469F7609570958C
:1012E000809590959B01AC01BD01CF010895AA1B8B
:1012F000BB1B51E107C0AA1FBB1FA617B70710F001
:10130000A61BB70B881F991F5A95A9F78095909532
:10131000BC01CD010895EE0FFF1F0590F491E02D63
:061320000994F894FFCFD0
:101326000F0F0F0D0C040064040004009900000167
:1013360001000066000000004703710304010C0170
:101346002001804020102040802010080408102032
:00000001FF
